:020000040800F2
:10000000000B002495030008478E0008876900084C
:10001000A1030008C91C000839D100080000000035
:1000200000000000000000000000000019A6000809
:100030008923000800000000C99200082DB40008C0
:10004000AF030008AF030008AF030008AF030008C8
:10005000AF030008AF030008AF030008AF030008B8
:10006000AF030008AF030008AF030008AF030008A8
:10007000AF030008AF030008AF030008AF03000898
:10008000AF030008AF030008AF030008AF03000888
:10009000AF030008AF030008AF030008AF03000878
:1000A000AF030008AF030008AF030008AF03000868
:1000B000AF030008AF030008AF030008AF03000858
:1000C000AF030008AF030008AF030008AF03000848
:1000D000AF030008E9D00008AF030008AF03000831
:1000E000AF030008AF03000800000000AF030008E2
:1000F000AF030008AF030008AF030008AF03000818
:10010000AF030008AF030008AF030008AF03000807
:10011000AF030008AF030008AF030008AF030008F7
:10012000AF030008AF030008AF030008AF030008E7
:10013000AF030008AF030008AF030008AF030008D7
:1001400000000000000000000000000000000000AF
:10015000AF030008AF030008AF030008AF030008B7
:10016000AF030008AF030008AF030008AF030008A7
:10017000AF030008AF030008AF0300080000000051
:10018000AF030008AF030008AF030008AF03000887
:10019000AF030008AF030008AF030008AF03000877
:1001A000AF030008AF030008AF030008AF03000867
:1001B000AF030008AF030008AF030008AF03000857
:1001C000AF030008AF030008AF030008AF03000847
:1001D000AF030008AF030008AF030008AF03000837
:1001E000AF030008AF030008AF030008AF03000827
:1001F000AF030008AF030008AF030008AF03000817
:10020000AF030008AF030008AF030008AF03000806
:10021000AF030008AF030008AF030008AF030008F6
:10022000AF030008AF030008AF03000800000000A0
:10023000AF030008AF03000800000000AF03000890
:10024000AF030008AF030008AF030008AF030008C6
:10025000AF030008AF030008AF030008AF030008B6
:10026000AF030008AF030008AF030008AF030008A6
:10027000AF030008AF030008AF0300080000000050
:10028000AF03000800000000AF03000800000000FA
:1002900000000000AF03000800F002F800F06BF867
:1002A0000AA090E8000C82448344AAF10107DA45D1
:1002B00001D100F060F8AFF2090EBAE80F0013F0B8
:1002C000010F18BFFB1A43F0010318470053010048
:1002D000205301000A444FF0000C10F8013B13F0CA
:1002E000070408BF10F8014B1D1108BF10F8015B8F
:1002F000641E05D010F8016B641E01F8016BF9D182
:1003000013F0080F1EBF10F8014BAD1C0C1B09D1D8
:100310006D1E58BF01F801CBFAD505E014F8016B4A
:1003200001F8016B6D1EF9D59142D6D370470000DC
:100330000023002400250026103A28BF78C1FBD8EE
:10034000520728BF30C148BF0B607047642900F0D6
:100350007F81782900F0B881732900F0CC830020D8
:1003600070471FB50DF050FD9DE8030000F0FAFA4C
:100370001FBD10B510BD00F003FC1146FFF7F1FFE3
:100380000DF050FC00F021FC03B4FFF7F2FF03BCBA
:100390000DF0F1FB0948804709480047FEE7FEE7FA
:1003A000FEE7FEE7FEE7FEE7FEE7FEE7FEE7FEE725
:1003B00004480549054A064B7047000035B400085B
:1003C0009902000800050024000B00240007002407
:1003D0000007002470B5064600F0A8FA056806F18B
:1003E0000B0020F00704B4429CBF002070BD2B46D8
:1003F0006A68BAB11068A04210D304F108018842BB
:100400003CBF5068586007D35168101941601168AB
:10041000091B016058601460101D70BD13465268BE
:10042000002AE7D12146284600F088FA0028DED1CC
:1004300070BD70B50446051F00F078FA0068002C06
:1004400014BF446870BD002C18BFAC423CBF2046AE
:100450006468F8D301680A18AA4218BF456003D13E
:100460002A6805461144016028684119A1421CBF51
:100470006C6070BD6168696021680844286070BD67
:1004800053EA020C00F069802DE9F04B4FF00006B2
:10049000002B1FBFB3FA83F503FA05F424FA05F61F
:1004A0005E4012BF1643B2FA82F502FA05F4C5F1B6
:1004B00020051EBF22FA05FC44EA0C04203556EA4A
:1004C000044C4FEA144418BF641C4FF000084FF06E
:1004D0000009904271EB030C39D3002919BFB1FA1E
:1004E00081F701FA07F6B0FA80F700FA07F6C7F1CC
:1004F00020071EBF20FA07FC46EA0C062037B6FB91
:10050000F4FCA7EB0507103F07F01F0BCBF120060B
:100510000CFA0BFB2CFA06F644BFB3460026202F3C
:10052000A4BF5E464FF0000B5BEA060C08BF4FF01D
:10053000010B19EB0B09ABFB027C48EB0608C01B57
:1005400006FB02CC0BFB03CC71EB0C01C1E70B46A5
:10055000024641464846BDE8F08B13B54FF0000017
:100560004FF00001AFF30080BDE81C407047000071
:100570000FB4044910B503AA029800F0C1FA10BCE8
:100580005DF814FB400000240FB41CB5074B06AA0D
:100590007B4469460090059800F083FA0020694684
:1005A00000F092FA1CBC5DF814FB00003505000059
:1005B00070B5044685690068C10601D5302600E0A3
:1005C0002026C00707D070BDD4E9012130469047EE
:1005D000206A401C20626D1EF6D570BD70B50446C1
:1005E00085690078C00707D170BDD4E901212020BA
:1005F0009047206A401C20626D1EF6D570BD70B514
:100600000C460546012A05D02878800600D5EA69FF
:10061000002302E0012305E05B1C934202D2E05C70
:100620000028F9D1A869E618C01AA861286A1844F8
:1006300028622846FFF7BCFF04E0D5E9012114F841
:10064000010B9047B442F8D32846FFF7C7FF70BDAF
:100650002DE9F0410646002410687529314616A59B
:1006600010D0AFF30080002802DA404213A507E063
:1006700031688A0701D512A502E0490704D511A502
:10068000012401E0AFF3008000210A2206F12407D3
:1006900009E0B0FBF2FCB0FBF2F302FB1C003030CF
:1006A00078541846491C0028F3D123462A46304680
:1006B000BDE8F04100F097B9000000002D000000F7
:1006C0002B0000002000000070B504460D462146B6
:1006D0001068AFF300802188090502D50F4A7A44DB
:1006E00002E00E4A7A440E32002104F1240305E0B0
:1006F00000F00F060009965D5E54491C0028F7D1F2
:1007000020780023000704D5702D02D009B1022300
:1007100011322046BDE8704000F065B90E4D010071
:100720002DE9F05F894604464FF0000ADFF824B156
:10073000FB44C0F820A02046E168884700287DD00F
:10074000252806D0D4E901219047206A401C206268
:10075000F1E700255F462046E168884720280646E5
:1007600007DB312E05D2B81910F8200C08B105436B
:10077000F1E7A80701D525F00405C4F81CA000275F
:10078000C4F818A02A2E09D030460DF0EDF938B380
:1007900004EB8708303EC8F8186019E059F8041BCC
:1007A000204604EB87029161E1688847012F0646E5
:1007B00018D1E069002820DA25F020051DE0D8F8DE
:1007C000180000EB800006EB40003038C8F8180035
:1007D0002046E168884706460DF0C6F90028EED1AC
:1007E000012F0AD02E2E08D12046E16888477F1CB1
:1007F0000646022F45F02005C4DBA069002803DA75
:10080000404245F00105A061E80701D025F0100540
:10081000A6B1A6F14100192802D8203645F400659A
:100820004A463146204625604D46FFF78FFD60B1B0
:10083000012807D0ED1D25F0070000E007E000F1DA
:10084000080978E705F1040975E730467AE7206A78
:10085000BDE8F09FE44C010010B5203AC0F00B80D9
:10086000B1E81850203AA0E81850B1E81850A0E8B4
:100870001850BFF4F5AF5FEA027C24BFB1E818500E
:10088000A0E8185044BF18C918C0BDE810405FEA7E
:10089000827C24BF51F8043B40F8043B08BF7047FA
:1008A000D20728BF31F8023B48BF11F8012B28BFFF
:1008B00020F8023B48BF00F8012B70474FF0013C85
:1008C00050F8042B51F8043B9A4215D1A2EB0C03CB
:1008D000934313EACC130BD150F8042B51F8043B8B
:1008E0009A4209D1A2EB0C03934313EACC13E7D04D
:1008F0004FF00000704700BFD01A01BAB1FA81F181
:1009000001F0180122FA01F0CB40C1F12001DBB265
:10091000C0B2C01A2CFA01F3D11A914311EAC311E3
:10092000E6D1704770477047704700000048704735
:10093000A8040024704770477047704738B50446D4
:100940000A4600206946AFF30080002808BF38BD82
:1009500002460099204600F0EDF8012038BD012044
:1009600000F006B9F8B5AFF30080054600200C464C
:10097000102000BF0646A819A0420DD9324669468C
:100980000020AFF30080070008BF00F0F1F80098E6
:10099000A04218BF0546C419FFF7C8FF0560074607
:1009A000F01D20F007004619284600F00AF8B4426E
:1009B00008BFF8BDA21B31463868BDE8F84000F01A
:1009C000B9B800210160C0E90110704710207047DC
:1009D00010B500F0ABF8006810BD10B5044600F08B
:1009E000A5F8046010BD2DE9F0470D4699469246E2
:1009F000044600F124080168880604D5E06921F066
:100A00001001216000E00120A84201DD471B00E049
:100A10000027A1697A1902EB0900081AA061207861
:100A2000C00602D42046FFF7C3FD002608E0D4E943
:100A300001211AF806009047206A401C761C2062AB
:100A40004E45F4DB2078C0060AD52046FFF7B0FDFE
:100A500006E0D4E9012130209047206A401C206242
:100A6000381EA7F10107F4DC07E0D4E9012118F8EA
:100A700005009047206A401C2062281EA5F1010550
:100A8000F3DC2046FFF7AAFD2078000602D50220FD
:100A9000BDE8F0870120FBE701694A1C0261087884
:100AA000704700B58FB0CDE90131002105910549AE
:100AB0007944CDE9031011466846FFF731FE0FB0C7
:100AC00000BD0000E5FFFFFF0A6802F8010B0A60A5
:100AD000704710B5436913B1AFF3008001E0FFF731
:100AE0008EFD012010BD127800F124010A70002251
:100AF0004A700122EDE711684FF0FF32E9E700008C
:100B0000074B70B50D467B44FFF7CBFF04462846E4
:100B100000F02AF810B14FF0FF3070BD204670BDD4
:100B2000FFD0000000487047A00400240048704730
:100B3000A0040024034640688C46002818BF884261
:100B40003CBF03464068F8D318681844884207D071
:100B50000CF1030020F00700001D411A521A014653
:100B6000081D0A60FFF765BC007B00F0800070473D
:100B700010B500F039F8BDE8104000F02FB870470C
:100B80007546FFF7CFFFAE4605006946534620F095
:100B90000700854618B020B5FFF70AFCBDE82040E5
:100BA0004FF000064FF000074FF000084FF0000B29
:100BB00021F00701AC46ACE8C009ACE8C009ACE8DC
:100BC000C009ACE8C0098D46704710B50446AFF3C4
:100BD00000802046BDE81040FFF7D6BB002801D0BA
:100BE0000CF0C9BF7047000010B5012805D00021E6
:100BF00003A000F021F8012010BD09A1F8E70000D2
:100C000053494752544D454D3A204F7574206F66F5
:100C10002068656170206D656D6F7279000000005D
:100C20003A2048656170206D656D6F727920636F41
:100C3000727275707465640070B505460C460A20C2
:100C400000E06D1C00F011F835B128780028F8D1CB
:100C500002E0641C00F009F814B120780028F8D1F3
:100C6000BDE870400A20AFF3008008B569468DF8F2
:100C700000000320ABBE08BD2DE9F04107460C463D
:100C80000026002509E036023919491B491E88B2A1
:100C900000F008F80644681CC5B2A542F3DB3046F4
:100CA000BDE8F08170B50446002605F037FF254603
:100CB000E11704EB11610912A02202EB4101C8B255
:100CC00005F0EEFE05F07EFFE11704EB116109125D
:100CD000A4EB0121C8B205F0E3FE05F073FF05F0B7
:100CE0001DFFA12005F0DCFE05F06CFF002005F0E3
:100CF000A1FE064605F03CFF304670BD2DE9F041EF
:100D000005460E461746002409E0E20026FA02F2E4
:100D1000D1B22A1990B200F006F8601CC4B2BC42ED
:100D2000F3DBBDE8F08170B504460E4605F0F6FE33
:100D30002546E11704EB11610912A02202EB4101E3
:100D4000C8B205F0ADFE05F03DFFE11704EB1161FF
:100D50000912A4EB0121C8B205F0A2FE05F032FF92
:100D6000304605F09DFE05F02DFF05F001FF0A203D
:100D70000CF00EFF70BD00002DE9F84F04460D4643
:100D800016461F46DDE90A9ADDF830806CE3F94823
:100D9000007812287ED2DFE800F009F2F1F0EFEEE1
:100DA000EDECEBEAE9E8E7E6E5E4E35E4BF205505B
:100DB00009FB00F00090BDF8020000B2EE49088087
:100DC0004BF205500AFB00F00090BDF8020000B2A3
:100DD000EA4908804FF4A030A0EB09400090BDF82C
:100DE000020000B2E64908804FF4A030A0EB0A40B0
:100DF0000090BDF8020000B2E2490880E248A0F885
:100E00000090E248A0F800A00020E1490880E149F4
:100E10000880DD48B0F90000DF490880DC48B0F9FF
:100E20000000DE490880DA48B0F90000DC4908809B
:100E3000D648B0F90000DB490880D648B0F9000078
:100E4000D9490880D348B0F90000D849088011205A
:100E5000C849087000BF00BFCE48B0F90000C749BC
:100E6000B1F90010884203DD0220C24908703AE25D
:100E7000C748B0F90000CA490880C648B0F9000068
:100E8000CA490880C248B0F90000BB49B1F9001056
:100E9000884200E025E233DCB948B0F900000028C0
:100EA00018DDB9480088401E00B2B7490880B44830
:100EB0000088401D00B2B2490880B5480088B24998
:100EC0000988401AAE49098801EB400000B2AC49DC
:100ED00008800EE0AA480088C01C00B2A84908801B
:100EE00008460088AA49098800EB410000B2A449DD
:100EF0000880A7480088401C00B2A549088011E07E
:100F0000A3480088401C00B2A14908809E48B0F95F
:100F10000000B1F90010884204DA9D48B0F90000E1
:100F2000994908809748B0F90000002828DD9748C3
:100F30000088401E00B29549088092480088401DF4
:100F400000B2904908809348008890490988401A67
:100F50008C49098801EB400000B28A4908801EE0F4
:100F600009E27FE1F2E151E135E225E118E2D9E061
:100F700063E2AFE044E285E0D3E159E0B2E118E09A
:100F800080480088C01C00B27E490880084600885E
:100F90008049098800EB410000B27A4908807D4809
:100FA0000088401C00B27B4908800120714908700C
:100FB00059E27948B0F900007349B1F9001088424C
:100FC00007D17848B0F900007049B1F900108842A3
:100FD00026D008F0010038B3DFF8BCC1BCF800C06F
:100FE000A5EB0C0C0FFA8CF3DFF8B4C1BCF800C011
:100FF000B4440FFA8CF2DFF8ACC1BCF800C0A5EB2A
:101000000C0C0FFA8CF1DFF8A0C1BCF800C0B4449E
:101010000FFA8CF000F040FA30B90020BDE8F88FEC
:1010200011205449087017E70320524908701AE24A
:1010300008F0020010B3DFF870C1BCF800C0A5EBE7
:101040000C0C0FFA8CF3DFF85CC1BCF800C0B444A0
:101050000FFA8CF2DFF848C1BCF800C0A5EB0C0C0D
:101060000FFA8CF1DFF830C1BCF800C0B4440FFABD
:101070008CF000F011FA08B90020CFE705203D49B7
:101080000870F0E108F0040000B3DFF820C1BCF8FC
:1010900000C0BC440FFA8CF3DFF808C1BCF800C0F4
:1010A000B4440FFA8CF2DFF8F4C0BCF800C0BC44C2
:1010B0000FFA8CF1DFF8E0C0BCF800C0B4440FFABE
:1010C0008CF000F0E9F908B90020A7E707202949CA
:1010D0000870C8E108F0080000B3DFF8C8C0BCF829
:1010E00000C0BC440FFA8CF3DFF8C0C0BCF800C0ED
:1010F000B4440FFA8CF2DFF8A0C0BCF800C0BC44C6
:101100000FFA8CF1DFF894C0BCF800C0B4440FFAB9
:101110008CF000F0C1F908B900207FE709201549DB
:101120000870A0E108F0100010B3DFF878C0BCF838
:1011300000C0BC440FFA8CF3DFF86CC0BCF800C0F0
:10114000A4EB0C0C0FFA8CF2DFF84CC0BCF800C01A
:10115000BC440FFA8CF1DFF848C0BCF800C0A4EB27
:101160000C0C0FFA8CF000F097F908B9002055E745
:101170001EE00000360100241A0100241C01002496
:1011800026010024280100241E010024200100243F
:1011900022010024240100242A0100242C0100241F
:1011A0002E010024300100243201002434010024E7
:1011B0000B20AE49087056E108F0200010B3DFF8AC
:1011C000B0C2BCF800C0BC440FFA8CF3DFF8A4C274
:1011D000BCF800C0A4EB0C0C0FFA8CF2DFF898C23C
:1011E000BCF800C0BC440FFA8CF1DFF890C2BCF828
:1011F00000C0A4EB0C0C0FFA8CF000F04DF908B90C
:1012000000200BE70D20994908702CE108F0400000
:1012100020B3DFF86CC2BCF800C0A5EB0C0C0FFAD1
:101220008CF3DFF850C2BCF800C0A4EB0C0C0FFA32
:101230008CF2DFF850C2BCF800C0A5EB0C0C0FFA22
:101240008CF1DFF838C2BCF800C0A4EB0C0C0FFA2C
:101250008CF000F021F908B90020DFE60F20834967
:10126000087000E108F0800020B3DFF808C2BCF885
:1012700000C0A5EB0C0C0FFA8CF3DFF804C2BCF82D
:1012800000C0A4EB0C0C0FFA8CF2DFF8F0C1BCF834
:1012900000C0A5EB0C0C0FFA8CF1DFF8E8C1BCF82C
:1012A00000C0A4EB0C0C0FFA8CF000F0F5F808B9B4
:1012B0000020B3E67448B0F900006E490880734816
:1012C000B0F900006E4908807148B0F900006B4920
:1012D00008807048B0F90000674908801120634910
:1012E0000870C0E000BF301B01D1781B10D008F09F
:1012F000020090B179194B1006EB0A010AB206EB15
:10130000090108B2294600F0C7F830B9002085E687
:10131000002056490870012080E6042053490870D7
:10132000A1E008F0040068B106EB0A031AB27B19C9
:10133000591006EB090318B23B4600F0ADF808B9A6
:1013400000206BE60E20494908708CE008F0100080
:1013500068B107EB0A0003B23019421007EB09002D
:1013600001B2204600F098F808B9002056E6102097
:101370003E49087077E008F0080068B107EB0A0200
:1013800013B207EB090211B232195010324600F0C5
:1013900083F808B9002041E60A203449087062E069
:1013A000301B14D008F0800068B1A5EB090003B22F
:1013B00030194210A5EB0A0001B2204600F06CF88B
:1013C00008B900202AE60C202849087002E006200F
:1013D0002649087047E008F0010068B1A5EB090252
:1013E00013B2A5EB0A0211B232195010324600F0C6
:1013F00053F808B9002011E606201C49087032E0B5
:10140000E81B14D008F0400068B179194B10A4EB28
:1014100009010AB2A4EB0A0108B2294600F03CF81F
:1014200008B90020FAE508201049087004E00020FF
:101430000E4908700120F1E515E008F0200068B1C0
:10144000A4EB09031AB27B195910A4EB0A0318B2D2
:101450003B4600F021F808B90020DFE500200349F1
:1014600008700120DAE500BF91E400003601002495
:101470002E0100242A01002432010024300100241E
:101480002C010024340100241E0100242201002428
:1014900020010024240100242DE9F04705460E46D2
:1014A000174698461D480088F8B11D48B0F900005D
:1014B000854202DA1A48B0F900501A48B0F9000023
:1014C000874202DD1748B0F900701748B0F90000F4
:1014D000864202DA1448B0F900601448B0F90000FE
:1014E000804502DD1148B0F9008034460EE0A9467F
:1014F00007E02146484608F0DBF909F101000FFA40
:1015000080F9781C8145F4DB601C04B208F101000D
:101510008442ECDB0120BDE8F08700007E0000245F
:10152000800000248400002482000024860000241F
:101530002DE9FF5F06460F4690469946DDF838A034
:101540004BF205500AFB00F00090BDF80200401C71
:1015500000B201904FF4A030A0EB0A400090BDF81B
:1015600002000FFA80FB55460020039001200290F4
:10157000BAF1000F7DD00024E5E00398401C00B2D2
:1015800095490390B1F90010884205D1029880F086
:101590000100029000200390029800286AD07A1B74
:1015A00011B208EB040210B208F082F93A1B11B232
:1015B00008EB050210B208F07BF909EB050211B245
:1015C00008EB040210B208F073F909EB040211B23F
:1015D00008EB050210B208F06BF909EB050211B235
:1015E000321B10B208F064F909EB040211B2721B4D
:1015F00010B208F05DF93A1B11B2721B10B208F07C
:1016000057F97A1B11B2321B10B208F051F9734826
:1016100000780028C2D07A1B521E11B208EB0402D7
:1016200010B208F045F97A1B521C11B208EB040203
:1016300010B208F03DF93A1B11B208EB0502521C3A
:1016400010B208F035F93A1B11B208EB0502521E30
:1016500010B208F02DF909EB0502521E11B208EB89
:10166000040210B208F024F909EB0502521C11B271
:1016700001E06CE052E008EB040210B208F018F947
:1016800009EB040211B208EB0502521C10B208F07B
:101690000FF909EB040211B208EB0502521E10B259
:1016A00008F006F909EB0502521E11B2321B10B206
:1016B00008F0FEF809EB0502521C11B2321B10B201
:1016C00008F0F6F809EB040211B2721B521C10B2BA
:1016D00008F0EEF809EB040211B2721B521E10B2B0
:1016E00008F0E6F83A1B11B2721B521C10B208F057
:1016F000DFF83A1B11B2721B521E10B208F0D8F874
:101700007A1B521C11B2321B10B208F0D1F87A1BAE
:10171000521E11B2321B10B208F0CAF8BBF1000F12
:1017200009DD681E05B2601B052101EB400058442D
:101730000FFA80FB05E0032000EB440058440FFA49
:1017400080FB601C04B2019884427FF716AFB8EBAF
:1017500006000CD000BFA7EB0A0003B2A7EB0A00FB
:1017600001B24246304606F0BFFB0028F3D0B9EB89
:1017700007000CD000BFA6EB0A010AB2A6EB0A01D3
:1017800008B24B46394606F0AFFB0028F3D0B8EB61
:10179000060002D1B9EB070019D000BF08EB0A011F
:1017A0000AB208EB0A0108B24B46394606F09CFB28
:1017B0000028F3D000BF09EB0A0003B209EB0A00CE
:1017C00001B24246304606F08FFB0028F3D00120DC
:1017D00004B0BDE8F09F0000080100240A010024C5
:1017E0002DE9F05F05460E4617469846DDF828B00D
:1017F000DDE90E9A00242820FEF7ECFD044614B91A
:101800000020BDE8F09F2580002060602072A68146
:10181000E781A4F81080A4F812B00B9820830D98EB
:101820006062C4F820900C986081BAF1000F03D177
:1018300010480068606101E0C4F814A000206083D3
:10184000A083206A50B160694169484602F010FBEC
:1018500060836169486902F003FBA083204601F0C0
:1018600065F9A07A00F0010010B1204601F058FEA1
:101870002046C6E79C0000242DE9F84F0446C048E6
:10188000007806287ED2DFE800F003368A93FFF85E
:10189000608900F4004098B16069008AB949088005
:1018A000B4F91230B4F91020B4F90E10B4F90C00E8
:1018B000FFF7F2FD10B90020BDE8F88F0120FBE72B
:1018C000208BB1490880208AA189411AAE4800883E
:1018D000A1EB400000B2AD490880608AE189411A5D
:1018E000A9480088A1EB400000B2A9490880012066
:1018F000A349087000BFA07A00F0020088B9A07A5E
:1019000000F0040030B1606947886069068860694A
:1019100085890CE060694688606907886069458947
:1019200005E060694688606907886069C5890020AC
:101930009849087098490880A08993490988084403
:1019400000B296490880E0898F490988084400B2AE
:1019500093490880208A8C490988401A00B291492D
:101960000880608A88490988401A00B28E49088038
:101970008548B0F900008D4908808D4805808D4864
:10198000068000E0FAE08C4807808C49606A0860B5
:1019900003208B49088002207949087000BF01F0BC
:1019A000C1FB08B9002087E703207549087000BF14
:1019B000206A002863D0A07A00F0020068B9A07AFB
:1019C00000F0040020B16069C0886E49088008E01A
:1019D000606980886B49088003E060690089694913
:1019E00008806169486908F019FEA07A00F01000CB
:1019F00030B1218A608B401D081A1FFA80F812E06E
:101A0000A07A00F0200020B1A089401D1FFA80F8C4
:101A100009E0B4F90C00B4F910100844B4F91A1034
:101A2000401AC0F34F08A07A00F0800020B1E0898E
:101A3000401D1FFA80F914E0A07A00F0400030B198
:101A4000618AA08BC01C081A1FFA80F909E0B4F95A
:101A50001200B4F90E100844B4F91C10401AC0F377
:101A60004F090FFA88F0574908800FFA89F0564954
:101A7000088004204249087005E00FE004E00520DA
:101A80003F4908700BE000BF206A07F075FA08B9FB
:101A9000002011E705203A49087000BF00BFA07A76
:101AA00000F0010080B302203B490880A07A00F0DA
:101AB000040020B16069C0883249088003E0606991
:101AC000808830490880208BF8B900200090B4F855
:101AD00012C0ACF1050C0FFA8CF3B4F810C0ACF1E5
:101AE000050C0FFA8CF2B4F80EC00CF1050C0FFACD
:101AF0008CF1B4F80CC00CF1050C0FFA8CF0FFF768
:101B000017FD90BB0020D7E633E01F480088401F38
:101B100000B20090B4F812C0DFF86CA0BAF800A0D0
:101B2000ACEB0A0C0FFA8CF3B4F810C0DFF858A035
:101B3000BAF800A0ACEB0A0C0FFA8CF2B4F80EC0A5
:101B4000DFF844A0BAF800A0D4440FFA8CF1B4F83E
:101B50000CC0DFF834A0BAF800A0D4440FFA8CF01F
:101B6000FFF7E6FC08B90020A6E6FFE700200A49D7
:101B7000088000200249087001209DE601209BE6B4
:101B80008C0000247C000024920000248E0000249D
:101B9000900000240A01002408010024A40000246D
:101BA000A6000024A8000024AA000024AC00002401
:101BB000AE000024B0000024B2000024B8000024CD
:101BC000B40000240C0100240E01002470B5054669
:101BD0000C4616463078022806D1A07A00F00100A3
:101BE00010B9204601F09CFC062D04D0082D08D029
:101BF000092D10D106E0608944F204010843608198
:101C00000AE000BF608920F004006081608940F430
:101C10008040608100E000BF00BF70BD0246907A46
:101C200000F0020008B1002070470878022849D16E
:101C3000B2F90C00B1F90230984234DAB2F910006E
:101C4000B1F9023098422EDDB2F90E00B1F904303C
:101C5000984228DAB2F91200B1F90430984222DD34
:101C6000907A00F0080050B14878042828D1907A82
:101C700000F0040008B10820D6E70620D4E7487831
:101C8000042801D10820CFE74878032805D1907AAD
:101C900000F0040008B10720C6E7907A00F00400C5
:101CA00070B90620C0E7907A00F0080040B9487883
:101CB000012805D1907A00F0040008B10920B3E7AB
:101CC0000020B1E70020AFE700BFFEE710B502201B
:101CD0000BF06AFF10BD000010B500224021124831
:101CE00002F09CFA1148006820F0C0000F4908601B
:101CF0000846006840F040000860FFF7E7FF002258
:101D000008210A4802F08AFAFFF7E0FF0122402189
:101D1000054802F083FAFFF7D9FF0022402102486C
:101D200002F07CFA10BD0000001C0258002002588E
:101D300000B587B000BF1648006840F08000144925
:101D400008600846006800F08000019000BF00BFF6
:101D500000BF0846006840F48070086008460068CC
:101D600000F48070019000BF00BF4020029001206D
:101D7000039004900320059002A9064802F020F980
:101D80000820029002A9044802F01AF907B000BD29
:101D9000E0440258001C02580020025810B50022EE
:101DA0004021124802F03AFA1148006820F0C000C1
:101DB0000F4908600846006840F040000860FFF7DF
:101DC00085FF012208210A4802F028FAFFF77EFF6A
:101DD00001224021054802F021FAFFF777FF002297
:101DE0004021024802F01AFA10BD0000001C0258FF
:101DF0000020025870B5054600241748006820F0FE
:101E0000C000154908600846006808601E200BF0F5
:101E1000CBFE002616E000224021104802F0FEF919
:101E2000FFF754FF012240210C4802F0F7F9600649
:101E3000040E0821084802F0E9F908B1601CC4B298
:101E4000701CC6B2082EE6DB15B9FFF7A7FF01E04C
:101E5000FFF742FF204670BD00200258001C0258C8
:101E600070B504461A48006820F0C00018490860A0
:101E70000846006840F040000860002240211548F4
:101E800002F0CCF9FFF722FF00251EE0E00928B19F
:101E9000012208210E4802F0C1F904E000220821C5
:101EA0000B4802F0BBF96006040E012240210948EC
:101EB00002F0B4F9FFF70AFF00224021054802F0C2
:101EC000ADF9FFF703FF681CC5B2082DDEDB70BD5E
:101ED00000200258001C025810B51248006820F07B
:101EE000C000104908600846006840F040000860E3
:101EF000012208210B4802F091F9012240210A48F1
:101F000002F08CF91E200BF04FFE0022082105483C
:101F100002F084F9FFF7DAFE00224021024802F0C5
:101F20007DF910BD00200258001C025810B5104861
:101F3000006820F0C0000E4908600846006840F0C4
:101F400040000860012240210A4802F067F91E2083
:101F50000BF02AFE00220821054802F05FF9FFF786
:101F6000B5FE01220821024802F058F910BD000018
:101F700000200258001C025810B5002416480068C2
:101F800020F0C0001449086008460068086001227B
:101F90000821114802F042F9012240210F4802F0C5
:101FA0003DF9FFF793FE09E0601CC4B2FA2C03DD93
:101FB000FFF7BCFF012010BDFFF788FE082106488F
:101FC00002F024F90028EFD100224021034802F05A
:101FD00025F90020EFE7000000200258001C0258FD
:101FE00010B508F059FA08F009FA0348006840F003
:101FF00004000149086010BD9CEF00E0F8B50446FC
:10200000A348007807287DD2DFE800F004238D96EE
:10201000C3CDFE00608900F44040B0B16069008A21
:102020009C490880B4F91230B4F91020B4F90E10AC
:10203000B4F90C00FFF730FA08B90020F8BD608948
:1020400000F4004008B10120F8E701209049087031
:1020500000BF608900F4804000287CD0A07A00F0A6
:10206000020068BBA089801C00B28B490880E0890F
:10207000801C00B289490880608AE189401AA189E0
:102080000844801E00B286490880608A801E00B223
:102090008449088000208449088060694089834918
:1020A00008806069008882490880606940888149A9
:1020B00008800020804908600320804908802EE0C5
:1020C000A089801C00B274490880E089801C00B29D
:1020D00072490880608AE189401AA1890844801EFB
:1020E00000B26F490880608A801E00B26D49088086
:1020F00000206D4908806069C0896C49088060696A
:10210000008800E0C2E06A49088060694088694947
:102110000880002068490860032068490880022080
:102120005B49087000BF00F0FDFF08B9002085E79B
:1021300003205749087000BFE06960B161694869D0
:1021400008F06CFAA07A00F0020028B96069808873
:102150005049088004E022E0606900894D49088008
:10216000A089618A0844E189401A801C00B2544960
:102170000880B4F91200B4F90E100844B4F918102C
:10218000401A401000B24F490880042040490870AE
:1021900000BFE06906F0F0FE08B900204EE7052018
:1021A0003B49087000BF608900F4A04068B3A07A82
:1021B00000F0020068B9A07A00F0040020B1606964
:1021C00080883449088011E060694089314908807D
:1021D0000CE0A07A00F0040020B1606900892D496C
:1021E000088003E06069C0892A490880B4F91200B8
:1021F000B4F90E10401A8510668AE789F61BA78984
:102200003E44761BF61E01E015E010E032B2668A0D
:10221000761BF61E33B2E6892E44F61C31B27E19C7
:10222000F61C30B2FFF738F908B9002006E706209F
:102230001749087000BF608900F4C04008B3A07A55
:1022400000F0010020B1606980881249088003E035
:102250006069008A0F49088002201B49088000201D
:102260000090B4F91230B4F91020B4F90E10B4F99A
:102270000C00FFF75DF908B90020DFE600201249E5
:1022800008800020024908700120D7E60120D5E629
:10229000940000247C000024A4000024A600002454
:1022A000A8000024AA000024AC000024AE000024F2
:1022B000B0000024B2000024B8000024B4000024C0
:1022C0000C0100240E0100240801002470B505460D
:1022D0000C4616463078022806D1A07A00F001009C
:1022E00010B9204601F01CF9012D02D0022D0FD1AA
:1022F00005E0608941F204010843608108E06089DB
:1023000020F004006081608940F48050608100BF4B
:1023100000BF70BD0246907A00F0020008B10020B4
:1023200070470878022824D1B2F90C00B1F90230C4
:1023300098421CDAB2F91000B1F90230984216DD69
:10234000B2F90E00B1F90430984210DAB2F9120075
:10235000B1F9043098420ADD4878022807D1907A12
:1023600000F0040008B10220DAE70120D8E70020DD
:10237000D6E70020D4E7000010B50248008804F03A
:1023800017FF10BD7C000024704710B5428C038CF1
:102390009A4200DB10BD438CC269D154428C521C5E
:1023A00042840022448CC3691A5500BFF2E7418C75
:1023B00001B97047418C491E41840021438CC26998
:1023C000D15400BFF5E700002DE9F04104469448E0
:1023D000007830B1012863D002287DD003287CD159
:1023E000F0E0608900F4004098B16069008A8D498E
:1023F0000880B4F91230B4F91020B4F90E10B4F911
:102400000C00FFF749F810B90020BDE8F081012069
:10241000FBE7A07A00F0020038B16069C08906B21B
:10242000608920F01000608113E06069408906B285
:10243000608900F4804060B1A07A00F0010020B112
:10244000608940F01000608103E0608920F0100096
:102450006081608900F4804038B3A08972490880A7
:10246000E08972490880208A71490880608A714930
:10247000088000207049088070490E8060690088DB
:102480006F490880606940886E49088000206E4965
:10249000086003206D49088001206149087000BF71
:1024A00000F040FE08B90020AFE70120684908802D
:1024B000A089401D00B267490880E089401D00B234
:1024C00065490880208A401F00B264490880608AFC
:1024D000401F00B2624901E05FE09FE0088061694F
:1024E000486908F09BF8A07A00F0020020B160690A
:1024F00000894C49088003E0606980884949088068
:102500005848B0F9000057490880B4F90E00B4F9F2
:1025100012100844B4F91810401A401000B2524981
:10252000088062695169E06901F0A2FC0546A07A61
:1025300000F00C0050B9A089401D00B24949088044
:102540004948B0F90000484908801EE0A07A00F030
:10255000040058B1208A401B401F00B24149088046
:102560004148B0F90000404908800EE0B4F90C0081
:10257000B4F910100844401B401000B239490880DB
:102580003948B0F9000038490880608900F480407B
:1025900048B102202249087000BFE06906F0ECFC57
:1025A00060B9002031E72F480088284400B22D4947
:1025B00008802D48B0F900002B49088003201849F5
:1025C000087000BFA07A00F0020000BBA07A00F003
:1025D000100020B1606980881249088003E06069BA
:1025E000408910490880208B1F490988084403B29C
:1025F0001C480088801C02B21B48B0F90010194822
:10260000B0F90000FEF748FF08B90020FDE6002001
:102610000F490880024908700120F6E60120F4E61F
:10262000950000247C000024A4000024A6000024BF
:10263000A8000024AA000024AC000024AE0000245E
:10264000B0000024B2000024B8000024B40000242C
:102650007E000024800000248200002484000024E6
:10266000860000240C0100240E01002470B50646EB
:102670000C4615462878022806D1A07A00F0010001
:1026800010B9204600F04CFF152E02D0162E11D1A5
:1026900008E029792046FFF778FE608940F4804001
:1026A000608107E02046FFF782FE608940F48040A9
:1026B000608100BF00BF70BD0246907A00F002004A
:1026C00008B100207047087802281BD1B2F90C002D
:1026D000B1F90230984213DAB2F91000B1F90230C0
:1026E00098420DDDB2F90E00B1F90430984207DAD4
:1026F000B2F91200B1F90430984201DD1720E1E788
:102700000020DFE70020DDE730B50246002300248B
:102710000868012816D013686FF30E03D1E901058C
:102720002843CD6828430D6928434D6928438D69A6
:102730002843CD6928430D6A28434D6A2843034343
:10274000136019E0136823F4F843D1E9070528431F
:102750004D6A2843034354686FF30E04D1E9010521
:102760002843CD6828430D6928434D6928438D6966
:102770002843044313605460002030BD0246506972
:1027800040EA410050610020704718B50346002020
:102790000090D1E9000420438C68641E40EA441094
:1027A000CC6840EA4420009000981861002018BDD1
:1027B00070B50346154600220024012D1FD09A68EB
:1027C00002F070420868401E4E68761E40EA061607
:1027D0008868401E46EA0026C868401E46EA003661
:1027E000088A401E46EA0046888A401E46EA00568D
:1027F000087E401E46EA006002439A6022E09A6822
:1028000011480240C868401E0603888A401E46EAF6
:1028100000500243DC6804F070440868401E4E68B3
:10282000761E40EA06168868401E46EA0026088A98
:10283000401E46EA0046087E401E46EA0060044309
:102840009A60DC60002070BDFF0F0FFF2DE9F84398
:1028500004460E4615461F46DDF8208054E1AB487D
:10286000007808280BD2DFE800F00438D1FC78AB00
:10287000F6F5B8F1000F03D10720A449087042E132
:102880004BF2055008FB00F00090BDF8020000B2CA
:102890009F4908804FF4A030A0EB08400090BDF89D
:1028A000020000B29B4908609B48A0F8008000200D
:1028B0009A4908809848B0F90000994908809748DB
:1028C000B0F90000974908809448B0F90000964993
:1028D000088001208D49087000BF00BF8F48B0F903
:1028E00000008B49B1F90010884203DD07208749B9
:1028F000087008E18948B0F900008B4908808548D4
:102900000068002814DD84480088401E00B2824917
:1029100008808248B0F90000B1F90010401A052182
:1029200001EB40007B49096808447A4908600AE0E5
:102930007A48B0F90000032101EB400075490968AD
:1029400008447449086075480088401C00B2734907
:10295000088004206D49087000BF7148B0F900007C
:102960006D49B1F90010884226D0DFF8BCC1BCF82F
:1029700000C0BC440FFA8CF3DFF8A4C1BCF800C05F
:10298000AC440FFA8CF2DFF89CC1BCF800C0BC4428
:102990000FFA8CF1DFF888C1BCF800C0A4EB0C0C76
:1029A0000FFA8CF0FEF778FD10B90020BDE8F8832F
:1029B000052056490870A6E00120544908708DE7AB
:1029C000DFF85CC1BCF800C0BC440FFA8CF3DFF840
:1029D00058C1BCF800C0AC440FFA8CF2DFF838C123
:1029E000BCF800C0BC440FFA8CF1DFF83CC1BCF865
:1029F00000C0A4EB0C0C0FFA8CF0FEF74DFD08B9EB
:102A00000020D3E70220414908707CE0DFF808C1CC
:102A1000BCF800C0A6EB0C0C0FFA8CF3DFF808C171
:102A2000BCF800C0AC440FFA8CF2DFF8F4C0BCF87C
:102A300000C0A6EB0C0C0FFA8CF1DFF8ECC0BCF870
:102A400000C0A4EB0C0C0FFA8CF0FEF725FD20B9AA
:102A50000020ABE737E051E003E003202B4908708A
:102A600051E0DFF8C0C0BCF800C0A6EB0C0C0FFAB8
:102A70008CF3DFF8ACC0BCF800C0AC440FFA8CF2A9
:102A8000DFF8A4C0BCF800C0A6EB0C0C0FFA8CF168
:102A9000DFF88CC0BCF800C0A4EB0C0C0FFA8CF073
:102AA000FEF7FAFC08B9002080E71B48B0F90000E7
:102AB0001B4908801948B0F900001A490880012014
:102AC000124908701FE0281B01D1B81B10D005EB7C
:102AD00008010AB2A4EB080108B23B463146FEF7F2
:102AE000DBFC08B9002061E706200849087004E013
:102AF000002006490870012058E700BF0020034964
:102B00000870012052E700BFA9E600004801002438
:102B10003C010024380100243E010024400100242F
:102B20004201002444010024460100240146084AD1
:102B3000126812B9064A116007E0054A106800E001
:102B400040684268002AFBD1416000224A60704719
:102B5000980000240146087A58B1087A022808D063
:102B6000087A032805D0087A052802D0087A0628B2
:102B700005D1887A00F0020008B9012070470020D2
:102B8000FCE7000010B51820FDF724FC0446DCB17A
:102B900042F6B02020804DF23E706080E920A08097
:102BA0004FF6FF70E0804FF2BB7020814AF6DD6087
:102BB000608142F23E60A0814BF29F60E0814DF265
:102BC0007E70208201486061204610BDC43C01082F
:102BD00010B54548006848B900F08AF820B143486C
:102BE00000684149086001E0002010BD002475E044
:102BF0003D480068408900F47C40002869D03A488C
:102C00000068007A0E2856D2DFE800F0070D13198D
:102C10001F252B31373D4355494F33480068FEF798
:102C20002BFE04B248E0304800680AF087FA04B28C
:102C300042E02D480068FFF7E1F904B23CE02A4881
:102C4000006806F071FF04B236E027480068FFF71D
:102C5000BBFB04B230E02448006804F073FE04B209
:102C60002AE02148006807F033FD04B224E01E4842
:102C7000006806F09BF904B21EE01B48006808F0EB
:102C8000E3F904B218E01848006806F01FFB04B22C
:102C900012E01548006800F027FF04B20CE012486B
:102CA000006807F001F904B206E00F48006805F07B
:102CB0003FFA04B200E000BF00BF44B10A48006818
:102CC0004089C0F3090008490968488101E00020F3
:102CD0008BE70548006840680349086002480068BF
:102CE000002885D1012080E7BC0000249800002442
:102CF00070B54248008800287AD041480068C58BEA
:102D000000204049088040480088854229DA23E0B5
:102D10003D48008840436E2190FBF1F086B23A486E
:102D200000884FF6FF7101EA4004062094FBF0F1A1
:102D300000FB1140201A84B2C6F1640001B2642382
:102D400004F1400002B2001F00B2FEF7A5FB2E48BE
:102D50000088C01E2C4908802B480088A842D7DC78
:102D600046E041E0284800883C2804DA4FF4FC6043
:102D70002449088014E024480088502808DA2248B2
:102D800000883C2804DB4FF6E0701E49088007E00D
:102D90001D480088502803DB4FF47840194908800B
:102DA0001948008840436E2190FBF1F086B2164826
:102DB00000884FF6FF7101EA4004062094FBF0F111
:102DC00000FB1140201A84B2C6F1640001B26423F2
:102DD00004F1400002B2001F00B2FEF75DFB0A489A
:102DE0000088C01C0849088007480088A842B9DB51
:102DF000002002490880012070BD0000200000244E
:102E00001C0000247C0000246000002402460648C8
:102E1000016805E00888904201D10846704749687A
:102E20000029F7D10020F9E79800002470B50B487D
:102E300004680AE06568207A052802D1204604F07B
:102E400073FD2046FDF7F5FA2C46002CF2D1002048
:102E5000024908600249086070BD00009800002423
:102E6000A000002410B503F0E1FEFFF78BFE01493E
:102E7000086010BD9C00002470B50646707800B94B
:102E800070BD72480568DCE0287A0E2874D2DFE84D
:102E900000F0071A273A4D60749495A287D5AFC207
:102EA00031462846FEF7BAFE044604B9C7E032466A
:102EB0002946204600F0CCF820B13246294620466B
:102EC000FEF784FEBBE0314628460AF051FA04467C
:102ED00004B9B4E032462946204600F0B9F8AEE025
:102EE00031462846FFF716FA044604B9A7E03246F1
:102EF0002946204600F0ACF820B13246294620464B
:102F0000FFF7E4F99BE03146284606F09EFF0446B1
:102F100004B994E032462946204600F099F820B1E1
:102F200032462946204606F067FF88E031462846AB
:102F3000FFF7C2FB044604B981E032462946204629
:102F400000F086F820B1324629462046FFF78EFB76
:102F500075E03146284604F09FFF044604B96EE050
:102F600032462946204600F073F820B13246294601
:102F7000204604F045FF62E060E03146284608F054
:102F800020F8044604B95AE032462946204600F0AB
:102F90005FF820B132462946204607F043FF4EE055
:102FA0003146284600F020FF044604B947E0324687
:102FB0002946204600F04CF841E040E031462846E2
:102FC00008F092F9044604B939E032462946204611
:102FD00000F03EF833E03146284606F079FA044620
:102FE00004B92CE032462946204600F031F826E0AC
:102FF0003146284607F086F8044604B91FE03246F9
:103000002946204600F024F820B1324629462046C1
:1030100007F064F813E03146284605F0FEFE04464A
:1030200004B90CE032462946204600F011F820B1E0
:1030300032462946204605F0CDFE00E000BF00BF25
:103040006D68002D7FF420AF00BF19E798000024C1
:103050002DE9F04106460D4690462D490E702F8809
:103060000A2F23D1062E1BD12A486862688940F0B6
:10307000100068810C20FFF7C9FE0446E08B228C0B
:10308000801A03D4E08B228C801A00E0002001B269
:10309000204607F036FF608940F48050608105E0EB
:1030A00000206862688920F0100068810B2F25D10C
:1030B000062E1DD118486862688940F0200068819A
:1030C0000C20FFF7A3FE0446E08B228C1044A28B59
:1030D000904203D8E08B228C104400E0A08B01B218
:1030E000204607F00EFF608940F48050608105E0C3
:1030F00000206862688920F0200068810748008805
:10310000401C06490880012005490880BDE8F0817F
:103110005E000024740000246C0000245C00002485
:10312000200000243EB5DFE1F048007809287DD278
:10313000DFE800F00535598FBFF7F5F4F300EC48F0
:10314000008820B3EB480088EB490880E121E8487B
:10315000B0F900200088E94B1B88C01A00B2CDE905
:1031600001210090E648B0F90030E648B0F90020AF
:10317000E548B0F90010E548B0F90000FDF7FCFDA6
:1031800008B900203EBD0120D849087006E00220A1
:10319000D64908700120DE49088025E000BFDD48DF
:1031A0000088D54908801E22D148B0F90010008857
:1031B000D24B1B88C01A00B28DE80700D048B0F986
:1031C0000030D048B0F90020CF48B0F90010CF4807
:1031D000B0F90000FDF7D0FD08B90020D2E70620C5
:1031E000C2490870CBE000BFC2480088C2490880CD
:1031F00022E0C54C2488C64D2D882C4423B2C14CF6
:103200002488C34D2D88641B22B2BF4C2488C04D36
:103210002D882C4421B2BD4C2488BD4D2D882C44D2
:1032200020B2FEF739F910B90020ABE75BE1B848EE
:103230000088401CB6490880B5480088AF49098815
:103240008842D6DB0120B24908800320A7490870D4
:1032500049E121E0AA4C2488AD4D2D88641B23B29E
:10326000AA4C2488AA4D2D882C4422B2A64C24882E
:10327000A74D2D882C4421B2A44C2488A44D2D8820
:103280002C4420B2FEF708F908B900207AE7A048DC
:103290000088401C9E4908809D48008897490988FD
:1032A0008842D7DB01209A49088004208F490870A2
:1032B00019E1984800889049088021E0904C2488C2
:1032C000934D2D88641B23B28E4C2488904D2D88FD
:1032D000641B22B28A4C24888D4D2D88641B21B238
:1032E0008A4C24888A4D2D882C4420B2FEF7D4F8CD
:1032F00008B9002046E786480088401C84490880B9
:10330000834800887D4909888842D7DB01208049AD
:103310000880052075490870E5E070E0A0E02DE028
:10332000FFE721E0764C2488794D2D88641B23B279
:10333000744C2488764D2D88641B22B2724C2488EC
:10334000734D2D882C4421B26E4C2488704D2D88ED
:10335000641B20B2FEF7A0F808B9002012E76C4801
:103360000088401C6A4908806948008863490988C8
:103370008842D7DB06205D490870B4E000BF66488C
:1033800000885D4908805A480088B8B158480088CC
:103390005A490988401A00B200905948B0F90030E3
:1033A0005848B0F900205848B0F900105748B0F913
:1033B0000000FFF74BFAF0B90020E3E6504C2488F8
:1033C0004E4D2D88641B23B24E4C24884B4D2D88C6
:1033D000641B22B24C4C2488484D2D882C4421B2C9
:1033E0004A4C2488454D2D882C4420B2FEF754F8D1
:1033F00008B90020C6E608203C49087073E0474839
:10340000006848B34548006800F018FD3C49B1F930
:1034100000103D4AB2F900201144081A012101EBC5
:10342000600004B23D48006800F011FD3549B1F973
:103430000010364AB2F900201144081A012101EBAC
:10344000600005B20B46354821460268284606F062
:1034500065F808B9002095E607202449087042E085
:103460002E48006808B32D48006800F0F0FC25499C
:10347000B1F90010254AB2F90020891A1C4AB2F9A4
:1034800000201144884229DC2448006800F0D6FC62
:103490001B49B1F900101C4AB2F90020891A144ADC
:1034A000B2F900201144884218DC1A4800881249F9
:1034B00008800F48B0F9000000901148B0F90030C2
:1034C0001048B0F900201048B0F900100F48B0F9CA
:1034D0000000FEF72DF808B9002053E6002003494C
:1034E000087001204EE600BF1EE60000C000002468
:1034F000AC000024B00000247C000024B4000024B0
:10350000AA000024A8000024A6000024A40000248F
:10351000C2000024B2000024AE000024B800002441
:1035200000B502461046FFF715FB00B900BD0E4876
:10353000006878B10C480068408920F001000A4911
:103540000968488108480068408940F400500649ED
:1035500009684881508942F20101084350810248BC
:10356000026000BFE2E70000A00000242DE9F04166
:1035700005460F461646FEF7AFFC2820FEF770FC06
:10358000FEF7FAFC2812FEF76BFCFEF7F5FCE8B23A
:10359000FEF766FCFEF7F0FCFEF79EFC2920FEF726
:1035A0005FFCFEF7E9FC00240BE0711EA14201D094
:1035B000012100E000210846FEF71CFC3855601C84
:1035C000C4B2B442F1DBFEF7B1FCBDE8F0812DE9F5
:1035D000F04104460E4617464FF00008FEF77CFC0B
:1035E0002820FEF73DFCFEF7C7FC2012FEF738FC52
:1035F000FEF7C2FCE0B2FEF733FCFEF7BDFC00258F
:103600000BE0705DFEF72CFCFEF7B6FC8046B8F1CF
:10361000000F00D003E0681CC5B2BD42F1DB00BF63
:10362000FEF784FC4046BDE8F081000000B589B09B
:1036300000BF4748006840F08000454908600846E0
:10364000006800F08000019000BF00BF00BF084686
:10365000006840F4807008600846006800F48070DC
:10366000019000BF00BF8020029000200390012045
:1036700004900320059002A9364800F0A1FC4FF405
:10368000807002900120039002A9334800F098FC5A
:10369000FEF74EFB00224FF480712F4800F0BEFD74
:1036A0000A200AF075FA012211022B4800F0B6FD3B
:1036B0000A200AF06DFA8020029000200390049006
:1036C0000320059002A9234800F07AFC64200AF048
:1036D0005FFA042207A948F2401000F055F80020D4
:1036E0008DF8200007A91DA0FCF742FF1FA107A825
:1036F000FDF7E4F848BB02208DF81C00012207A961
:1037000048F24000FFF763FF012207A948F2470093
:10371000FFF72CFF9DF81C00412807DA9DF81C10CC
:1037200014A0FCF725FF012000F082F90A200AF01E
:103730002FFA00208DF81C00012207A948F2400052
:10374000FFF745FF002009B000BD0120FBE70000A6
:10375000E0440258001C02580020025843545020F4
:1037600049443A25730D0A0D0A00000039323731F9
:103770000000000044656661756C74205665723AFD
:1037800025640D0A000000002DE9F04105460F46B2
:103790001646FEF7A1FB2820FEF762FBFEF7ECFBC6
:1037A0002812FEF75DFBFEF7E7FBE8B2FEF758FBD9
:1037B000FEF7E2FBFEF790FB2920FEF751FBFEF738
:1037C000DBFB00240BE0711EA14201D0012100E0CF
:1037D00000210846FEF70EFB3855601CC4B2B44207
:1037E000F1DBFEF7A3FBBDE8F0810000FEB5002091
:1037F00002900090002689480078401C8749087094
:10380000012202A948F24E10FFF7BEFF9DF8080002
:1038100000F0800088B19DF8080000F00F000B2830
:103820000BDA002000900122694648F24E1000F0A9
:103830002DF903207A4908700CE0794800780028B7
:1038400004DD77480078401E754908707448007898
:1038500000B901269DF8080000F00F0000287DD077
:103860009DF8080000F00F000B2877DA9DF808009B
:1038700000F00F014FF6FF70884084B26948858ED2
:10388000E04380B240F0C0006649888608468189DE
:10389000C183018C41860020009055E06148808EF4
:1038A0009DF80020012191400840E8B35E499DF851
:1038B000002031F81200062201A9FFF765FF5948E0
:1038C00090F8440000F00100D0B19DF806009DF88A
:1038D000071000EB012081B2524820309DF80020F3
:1038E00020F812109DF804009DF8051000EB01204F
:1038F00081B24C480C309DF8002020F812101DE0D9
:103900009DF806009DF8071000EB0120C0F54870F7
:1039100081B244480C309DF8002020F812109DF828
:1039200004009DF8051000E009E000EB012081B2E1
:103930003C4820309DF8002020F8121000BF9DF870
:103940000000401CC0B200909DF800000A28A5DBD2
:103950000026032032490870324800E02BE08089BD
:1039600032490988884205DC2E48008C2F49498855
:1039700088421CDD9DF8080000F00F0001280ADDD8
:103980002848C089274988810846408C088400203F
:10399000224908701CE02348C08B224988810846D0
:1039A000408E0884802002900846858610E0002022
:1039B0001A4908700CE01A480078002804DD1848FD
:1039C0000078401E164908701548007800B9012695
:1039D0009DF8080000F08F00802816D1114890F85B
:1039E000340000F0800030B10E48808E20F080005E
:1039F0000C49888609E04FF6FF700A4988810884DF
:103A00000846808E00F46040888604480078F028DC
:103A100002DD0020014908703046FEBD9D010024F2
:103A20009E010024A0010024A8530108680300247B
:103A300038B50546002400208DF800008DF80150AF
:103A400000BF09E09DF800000F49095D0844C0B2BD
:103A50008DF80000601CC4B2B82CF3D39DF80000B0
:103A6000C043401CC0B28DF80000BA22064948F29B
:103A7000470000F00BF80222694648F2FF0000F010
:103A800005F8002038BD0000EE5201082DE9F04194
:103A900004460E4617464FF00008FEF71DFA282090
:103AA000FEF7DEF9FEF768FA2012FEF7D9F9FEF705
:103AB00063FAE0B2FEF7D4F9FEF75EFA00250BE0F8
:103AC000705DFEF7CDF9FEF757FA8046B8F1000FAA
:103AD00000D003E0681CC5B2BD42F1DB00BFFEF7B9
:103AE00025FA4046BDE8F08170B50446B748007835
:103AF0000E2873D2DFE800F0071F35A2B1C4D8EA60
:103B0000FDFCFBFAF9F8608900F4004078B16069C7
:103B1000008AAF490880B4F91230B4F91020B4F922
:103B20000E10B4F90C00FDF7B7FC012070BD0120A8
:103B3000A649087000BFE06978B16069008AA449AD
:103B40000880E589668B35442BB2B4F91020B4F9AE
:103B50000E10B4F90C00FDF79FFC02209B49087081
:103B600000BFA07A00F0020020B160690089984986
:103B7000088003E06069808895490880E06980B921
:103B8000E08994490880A089401C00B292490880CD
:103B90000846B0F900009149088004208B4908705C
:103BA0005AE06169486906F039FDE089B4F91A10F4
:103BB00000EB610000B287490880A07A00F00400A1
:103BC00068B1208A218B401A801E00B28249088089
:103BD000208A801E00B28149088023E0F3E0A07AA9
:103BE00000F0080090B1B4F90C00B4F910100844CA
:103BF000B4F91810401A401000B277490880208BA1
:103C00000988084400B2754908800BE0A089801C2F
:103C100000B271490880A089801C218B084400B241
:103C20006E4908806C48B0F900006D490880E08951
:103C30006C49088003206549087000BFE06905F001
:103C40009BF908B9002071E7606900886049088025
:103C500004205E49087000BF00BFB4F910205D4821
:103C60000088401C03B25B480088401C01B25B48DE
:103C7000B0F9000004F038F905205449087000BF7D
:103C8000A189491C08B253490988491C0BB2524901
:103C9000B1F900204F490988491C09B204F024F900
:103CA00006204A49087000BFB4F91230A189491CA6
:103CB0000AB2A189491C08B246490988491C09B2BF
:103CC00004F012F907204149087000BFB4F912301E
:103CD000B4F9102010463F490988491C09B204F084
:103CE00003F90820394905E05BE047E037E011E0DF
:103CF00025E001E0087000BFB4F91230B4F91020DB
:103D00001946A5896D1C28B204F0EEF80A202F4947
:103D1000087000BF606940882D490880B4F90C0024
:103D20002C49B1F900302C49B1F900202949B1F9E9
:103D3000001004F0D9F809202449087000BFB4F934
:103D400010202448B0F90030B0F900102348B0F931
:103D5000000004F0C9F80B201C49087000BF618AFC
:103D6000491E0BB2B4F90C2010461A49B1F90010E3
:103D700004F0BAF80C201549087000BF618A491E8A
:103D80000BB2218A491E0AB2218A491E08B2114982
:103D90000988891C09B204F0A7F80D200B490870A6
:103DA00000BF658A6D1E2BB2258A6D1E2AB2658AF8
:103DB0006D1E29B2A589AD1C28B204F095F800202B
:103DC0000249087000BF00BF0120AFE6C400002414
:103DD0007C000024CA000024C6000024C80000247F
:103DE0000C0100240E0100240246907A00F002002B
:103DF00010BB087802281FD1B2F90C00B1F90230CB
:103E0000984219DAB2F91000B1F90230984213DD84
:103E1000B2F90E00B1F9043098420DDAB2F912008D
:103E2000B1F90430984207DD4878022802D048787A
:103E3000042801D10B2070470020FCE701460888C8
:103E400018B94868408800B270470020FCE7014676
:103E5000088818B94868808800B270470020FCE7DD
:103E60000146088810B94868C07970470020FCE70F
:103E7000F0B503460C462088D0B961688E7891F879
:103E800004C001F1080700250CE0B24200DA09E0A5
:103E9000624500DD06E0901B07EB80004078284477
:103EA00005B200BF13F8012B0F2AEEDC2846F0BD47
:103EB0000020FCE710B504460CB9012010BD94F8B1
:103EC0003500022803D0802060650120F6E73449E0
:103ED0002068884205D333492068884201D80120F0
:103EE00000E00020C0B1042084F835002C4920688F
:103EF00088420AD32B492068884206D82068006887
:103F000020F001002168086048E02068006820F087
:103F100001002168086041E02068006820F00E0080
:103F2000216808601E49206888420AD31D4920681C
:103F3000884206D82068006820F0010021680860E7
:103F400005E02068006820F0010021680860206E0C
:103F5000006820F48070216E086094F85C100120E5
:103F6000884011490860D4E919104860E06E40B1FA
:103F7000E06E006820F48070E16E0860D4E91C10E7
:103F8000486000BF002084F8340000BF012084F89E
:103F90003500206D10B12046216D884700208DE747
:103FA00010000240B804024004540258034800685C
:103FB00040F00100014908607047000020040058EB
:103FC000F8B502460B460021002600240020824D51
:103FD00000BFFCE0012707FA01F61F6807EA0604A4
:103FE000B4427CD15F68022F02D05F68122F1AD1D1
:103FF0004FEAD10C02F1200757F82C004F074FEA87
:10400000D76C0F2707FA0CF7B8434FEA417C4FEA09
:10401000DC6C1F6907FA0CF738434FEAD10C02F148
:10402000200747F82C0010684FEA410C032707FAD5
:104030000CF7B8431F7907F003074FEA410C07FA62
:104040000CF7384310605F68012F08D05F68022FBB
:1040500005D05F68112F02D05F68122F17D19068CA
:104060004FEA410C032707FA0CF7B8434FEA410C1B
:10407000DF6807FA0CF738439060506801278F40DB
:10408000B8431F79C7F300178F4038435060D0689A
:104090004FEA410C032707FA0CF7B8434FEA410CEB
:1040A0009F6807FA0CF73843D0605F6807F08057C5
:1040B000B7F1805F95D100BF484F3F6847F00207D6
:1040C000DFF818C1CCF8007067463F6807F00207B8
:1040D000009700BF00BF424F4FEA910C00E075E02F
:1040E00057F82C008F074FEA177C0F2707FA0CF7B9
:1040F000B8433C4FBA4201D100272DE03A4FBA42B3
:1041000001D1012728E0394FBA4201D1022723E02B
:10411000374FBA4201D103271EE0364FBA4201D1D0
:10412000042719E0344FBA4201D1052714E0334F78
:10413000BA4201D106270FE0314FBA4201D1072719
:104140000AE0304FBA4201D1082705E02E4FBA42AB
:1041500001D1092700E00A274FEA817C4FEA1C7C45
:1041600007FA0CF738431E4F4FEA910C47F82C0022
:104170002868A0435F6807F48037B7F5803F00D117
:10418000204328606868A0435F6807F40037B7F5EC
:10419000003F00D1204368604FF0B0473868A0432B
:1041A0005F6807F48017B7F5801F00D120434FF0F8
:1041B000B04738607868A0435F6807F40017B7F528
:1041C000001F00D120434FF0B0477860491C1029F0
:1041D000FFF400AFF8BD000080000058F44402581E
:1041E0000804005800000258000402580008025851
:1041F000000C02580010025800140258001802580F
:10420000001C02580020025800240258024613697C
:104210000B400BB1012000E0002070470AB1018380
:1042200000E04183704700000148006870470000CB
:1042300048000024034800680349097808440149FC
:1042400008607047480000245000002410B5032087
:1042500000F04AFA0F2000F007F808B1012010BD65
:1042600000F0F4F90020FAE770B504460E48007833
:104270004FF47A71B1FBF0F00C490968B1FBF0F52D
:10428000284602F03EF908B1012070BD102C07D27B
:1042900000222146501E00F0EAF90548046001E0C2
:1042A0000120F2E70020F0E7500000243400002451
:1042B0004C00002470B504460E46154600BF94F825
:1042C000A000012801D1022070BD012084F8A000C7
:1042D00000BF022084F8A10005EB850101EBC502B7
:1042E00004F1380101EB820034223146FCF7B4FAC4
:1042F0002A463146204603F0EFF901202168486242
:1043000084F8A10000BF002084F8A00000BF00BF17
:10431000DAE7000070B50446002500260CB901203C
:1043200070BD94F8A10028B9002084F8A0002046B0
:1043300000F07EF8022084F8A1002068806920F057
:10434000704021688861D4E901010843E1680843AD
:1043500021690843216889690843216888612068C8
:1043600080683249084021688860A08A0504206876
:104370008068A16929430843216888602068C06873
:104380002A4908402168C860A08B05042068C068DD
:10439000216A294308432168C860206800692349CD
:1043A000084021680861A08C050420680069A16AA2
:1043B0002943084321680861206840691B49084077
:1043C00021684861A08D050420684069216B29435C
:1043D00008432168486194F83500050294F83600D6
:1043E00006042068C06A00F07F402168C86246EA7F
:1043F000050094F8341008432168C96A084321680D
:10440000C8622068406B40F006002168486320685D
:10441000806940F00100216888610020C4F8A40090
:10442000012084F8A10000207AE7000000F800F0E5
:1044300010B586B0044600BF4848006840F0080048
:10444000464908600846006800F00800009000BF78
:1044500000BF00BF41481038006840F010003F49DD
:10446000103908600846006800F01000009000BF96
:1044700000BF00BF3948001F006840F00200374904
:10448000091F08600846006800F00200009000BFA5
:1044900000BF00BF0846006840F0200008600846E2
:1044A000006800F02000009000BF00BF00BF084679
:1044B000006840F0400008600846006800F04000D6
:1044C000009000BF00BF00BF0846006840F08000B9
:1044D00008600846006800F08000009000BF00BF40
:1044E00000BF0846006840F4807008600846006815
:1044F00000F48070009000BF00BF202001900120D8
:10450000029003900320049001A91548FFF758FD7D
:104510004FF480600190022002900020039003205D
:1045200004900E20059001A90E48FFF749FD4FF4B5
:104530000C60019001A90C48FFF742FD4FF47E404A
:10454000019001A90948FFF73BFD40F2F760019097
:1045500001A90748FFF734FD06B010BDE444025836
:10456000000402580014025800180258001C025897
:10457000002002582DE9F04104460E4617469846A1
:1045800000BF94F8A000012802D10220BDE8F0810C
:10459000012084F8A00000BF022084F8A10008EBED
:1045A000880000EBC80104F1380000EB81052E60A3
:1045B000A86A30446860AF60E86A3844E860424600
:1045C0002946204603F088F801202168486284F8D3
:1045D000A10000BF002084F8A00000BF00BFD5E705
:1045E0002DE9F04104460E461746984600BF94F860
:1045F000A000012802D10220BDE8F081012084F84A
:10460000A00000BF022084F8A10008EB880000EBA6
:10461000C80104F1380000EB810528683044686067
:10462000A8683844E860AE62EF62424629462046F8
:1046300003F052F801202168486284F8A10000BF0D
:10464000002084F8A00000BF00BFD5E770470146F6
:104650000846002809DB00F01F0301229A404309A5
:104660009B0003F1E023C3F8002100BF70472DE950
:10467000F05F80460D46164608F0D8FE07463946DC
:104680002A46334601F00700C0F1070ABAF1040FC9
:1046900002D94FF0040A01E0C0F1070AD14600F147
:1046A000040ABAF1070F02D24FF0000A01E0A0F1AC
:1046B000030AD4464FF0010A0AFA09FAAAF1010ADC
:1046C0000AEA020A0AFA0CFA4FF0010B0BFA0CFB89
:1046D000ABF1010B0BEA030B4AEA0B0421464046FF
:1046E00008F0ACFEBDE8F09F00BF00F00702064BEB
:1046F00019684FF6FF031940044B0B4343EA0221AC
:10470000014B196000BF70470CED00E00000FA0596
:1047100010B501F067F90949096801F470614FF4B7
:10472000807292FAA2F2B2FA82F2D140044A515C4B
:10473000C840044908600846006810BD1844025883
:1047400042DE00083400002410B501F003F90749E7
:10475000096801F07001102292FAA2F2B2FA82F214
:10476000D140034A515CC84010BD000020440258AB
:1047700042DE000870B5014600220120002300241B
:104780009FED811AB0EE410A9FED7F1AF0EE410ACB
:104790007E4D2D6805F003027C4D2D68C5F3053074
:1047A0007A4D2D1D2D6805F01003784D14352D68B8
:1047B000C5F3CC0515FB03F501EE105AB8EE411A0E
:1047C000B0EE410A22B1012A4DD0022A7DD169E022
:1047D0006E4D283D2D68C5F340152DB36B4D283D1A
:1047E0002D68C5F3C1066A4D25FA06F4B4FBF0F551
:1047F00001EE105AF8EE411A9FED661A80EE012A7A
:10480000624D10352D68C5F3080501EE105AB8EE5B
:10481000411A32EE011AB7EE002A31EE021A21EEE9
:10482000811AF0EE410A1DE0594DB5FBF0F501EE9D
:10483000105AF8EE411A9FED571A80EE012A534D97
:1048400010352D68C5F3080501EE105AB8EE411A6F
:1048500032EE011AB7EE002A31EE021A21EE811A69
:10486000F0EE410A5EE04C4DB5FBF0F501EE105A5A
:10487000B8EE412A9FED471AC0EE011A434D10359C
:104880002D68C5F3080501EE105AB8EE411A31EE55
:10489000811AF7EE001A31EE211A22EE011AF0EE1B
:1048A000410A3FE03D4DB5FBF0F501EE105AF8EE40
:1048B000411A9FED381A80EE012A344D10352D68CB
:1048C000C5F3080501EE105A00E00CE0B8EE411AFD
:1048D00032EE011AB7EE002A31EE021A21EE811AE9
:1048E000F0EE410A1EE02C4DB5FBF0F501EE105A3A
:1048F000B8EE412A9FED271AC0EE011A234D10355C
:104900002D68C5F3080501EE105AB8EE411A31EED4
:10491000811AF7EE001A31EE211A22EE011AF0EE9A
:10492000410A00BF00BF194D10352D68C5F346255B
:104930006D1C01EE105AB8EE411AC0EE811ABCEEA1
:10494000E11A81ED001A114D10352D68C5F30645A9
:104950006D1C01EE105AB8EE411AC0EE811ABCEE81
:10496000E11A81ED011A094D10352D68C5F3066570
:104970006D1C01EE105AB8EE411AC0EE811ABCEE61
:10498000E11A81ED021A70BD0000000028440258AF
:104990000090D0030000004600093D0040787D01F2
:1049A00070B5014600220120002300249FED811AEA
:1049B000B0EE410A9FED7F1AF0EE410A7E4D2D6860
:1049C00005F003027C4D2D68C5F305507A4D2D1D71
:1049D0002D6805F48073784D1C352D68C5F3CC0522
:1049E00015FB03F501EE105AB8EE411AB0EE410A7C
:1049F00022B1012A4DD0022A7DD169E06E4D283DB9
:104A00002D68C5F340152DB36B4D283D2D68C5F3BA
:104A1000C1066A4D25FA06F4B4FBF0F501EE105A12
:104A2000F8EE411A9FED661A80EE012A624D1835A4
:104A30002D68C5F3080501EE105AB8EE411A32EEA2
:104A4000011AB7EE002A31EE021A21EE811AF0EEB9
:104A5000410A1DE0594DB5FBF0F501EE105AF8EE94
:104A6000411A9FED571A80EE012A534D18352D68D3
:104A7000C5F3080501EE105AB8EE411A32EE011ADC
:104A8000B7EE002A31EE021A21EE811AF0EE410A49
:104A90005EE04C4DB5FBF0F501EE105AB8EE412A40
:104AA0009FED471AC0EE011A434D18352D68C5F326
:104AB000080501EE105AB8EE411A31EE811AF7EEF0
:104AC000001A31EE211A22EE011AF0EE410A3FE0FF
:104AD0003D4DB5FBF0F501EE105AF8EE411A9FED91
:104AE000381A80EE012A344D18352D68C5F30805B3
:104AF00001EE105A00E00CE0B8EE411A32EE011A55
:104B0000B7EE002A31EE021A21EE811AF0EE410AC8
:104B10001EE02C4DB5FBF0F501EE105AB8EE412A1F
:104B20009FED271AC0EE011A234D18352D68C5F3E5
:104B3000080501EE105AB8EE411A31EE811AF7EE6F
:104B4000001A31EE211A22EE011AF0EE410A00BFDE
:104B500000BF194D18352D68C5F346256D1C01EEB3
:104B6000105AB8EE411AC0EE811ABCEEE11A81ED7E
:104B7000001A114D18352D68C5F306456D1C01EE60
:104B8000105AB8EE411AC0EE811ABCEEE11A81ED5E
:104B9000011A094D18352D68C5F306656D1C01EE27
:104BA000105AB8EE411AC0EE811ABCEEE11A81ED3E
:104BB000021A70BD00000000284402580090D00383
:104BC0000000004600093D0040787D012DE9F041DC
:104BD000044600250026206800F00060B0F1006F58
:104BE00030D1606E48B1B0F5801F0DD0B0F5001F18
:104BF00010D0B0F5401F15D113E0F948006840F41B
:104C00000030F74908600FE00221201D04F05CFE2F
:104C1000054609E0022104F1240004F0EDFE0546FA
:104C200002E001E0012500BF00BF55B9EC48243087
:104C3000006820F44010616E0843E949243108609F
:104C400000E02E43208800F48070B0F5807F2DD1E5
:104C5000606D05281AD2DFE800F0030A101718006B
:104C6000DF48006840F40030DD49086010E00021B2
:104C7000201D04F029FE05460AE0002104F124006D
:104C800004F0BAFE054603E002E001E0012500BFA2
:104C900000BF55B9D2482430006820F00700616D8C
:104CA0000843CF492431086000E02E43208800F4F7
:104CB0000070B0F5007F33D1A06D802817D003DCE1
:104CC00040B140281CD10CE0C02817D0B0F5807F3F
:104CD00016D114E0C248006840F40030C0490860B2
:104CE00010E00021201D04F0EFFD05460AE0002140
:104CF00004F1240004F080FE054603E002E001E038
:104D0000012500BF00BF55B9B5482430006820F424
:104D1000E070A16D0843B2492431086000E02E43E1
:104D2000208800F48060B0F5806F38D1D4F8A400FA
:104D3000B0F5800F19D004DC50B1B0F5001F1DD1C3
:104D40000DE0B0F5C00F17D0B0F5000F16D114E08C
:104D5000A348006840F40030A149086010E0002139
:104D6000201D04F0B1FD05460AE0002104F12400F5
:104D700004F042FE054603E002E001E0012500BF29
:104D800000BF5DB996482C30006820F46000D4F86C
:104D9000A410084392492C31086000E02E4320887B
:104DA00000F40060B0F5006F38D1D4F8A800B0F17D
:104DB000007F19D004DC50B1B0F1807F1DD10DE02F
:104DC000B0F1407F17D0B0F1806F16D114E0844865
:104DD000006840F400308249086010E00021201D86
:104DE00004F072FD05460AE0002104F1240004F0FD
:104DF00003FE054603E002E001E0012500BF00BF1D
:104E00005DB977482C30006820F0E060D4F8A81035
:104E1000084373492C31086000E02E43206800F0FD
:104E20000070B0F1007F27D1A06CA0B1102804D091
:104E3000202809D030280FD10CE06948006840F4E0
:104E400000306749086009E00221201D04F03CFDA4
:104E5000054603E002E001E0012500BF00BF55B9AF
:104E60005F482030006820F03000A16C08435C49A6
:104E70002031086000E02E43208800F48050B0F517
:104E8000805F36D1E06DB0F5005F19D004DC50B121
:104E9000B0F5805F1DD10DE0B0F5405F17D0B0F5E3
:104EA000804F16D114E04E48006840F400304C4961
:104EB000086010E00021201D04F006FD05460AE010
:104EC000002104F1240004F097FD054603E002E010
:104ED00001E0012500BF00BF55B9414824300068FA
:104EE00020F4E040E16D08433D492431086000E0D2
:104EF0002E43208800F40050B0F5005F34D1206EBE
:104F0000B0F5403F1DD007DC68B1B0F5803F0BD055
:104F1000B0F5003F18D10DE0B0F5802F12D0B0F5FC
:104F2000A02F11D10FE011E00121201D04F0CCFCD5
:104F300005460BE0012104F1240004F05DFD054667
:104F400004E003E002E001E0012500BF00BF55B925
:104F500023482430006820F4E020216E08432049D3
:104F60002431086000E02E43208800F48040B0F532
:104F7000804F38D1D4F8AC00B0F1405F1DD007DCD1
:104F800068B1B0F1805F0BD0B0F1005F18D10DE0D7
:104F9000B0F1804F12D0B0F1A04F11D10FE011E06D
:104FA0000121201D04F090FC05460BE0012104F1D5
:104FB000240004F021FD054604E003E002E001E0E6
:104FC000012500BF00BF6DB905482C30006820F0F6
:104FD000E040D4F8AC10084301492C31086002E0ED
:104FE0002C4402582E43208800F40040B0F5004FB6
:104FF00026D1E06E98B1B0F1805F03D0B0F1005FD0
:105000000ED106E0FA48006840F40030F849086024
:1050100008E00121201D04F057FC054602E001E0F4
:10502000012500BF00BF55B9F1482430006820F0C9
:105030004050E16E0843EE492431086000E02E4301
:10504000206800F08070B0F1807F27D1606CA0B143
:10505000012804D0022809D003280FD10CE0E4482D
:10506000006840F40030E249086009E00221201D98
:1050700004F02AFC054603E002E001E0012500BF40
:1050800000BF55B9DA482030006820F00300616C99
:105090000843D7492031086000E02E43206800F41F
:1050A0008000B0F5800F7DD1D248006840F4807058
:1050B000D0490860FFF7B8F8074606E0FFF7B4F8F4
:1050C000C01B642801D9032505E0CA48006800F424
:1050D00080700028F2D000BF8DBBC5484430006806
:1050E00000F44070B4F8B01001F44071884214D05C
:1050F000BF484430006820F44078BD484430006820
:1051000040F48030BA49443108600846006820F411
:10511000803008600846C0F80080D4F8B000B0F5D0
:10512000807F15D1FFF780F8074609E0FFF77CF88C
:10513000C01B41F28831884202D9032507E038E0DC
:10514000AB4844300068C0F340000028EED000BFF8
:105150004DBB00BFB4F8B00000F44070B0F5407F24
:105160000ED1A3481C38006820F47C51A24AD4F820
:10517000B000104041EA10109D491C39086007E05A
:105180009B481C38006820F47C5099491C39086001
:10519000974844300068B4F8B010C1F30B010843DD
:1051A000934901E006E002E04431086002E02E434A
:1051B00000E02E43207800F0010068B3A06F1828AB
:1051C00019D005DC48B1082808D0102816D10BE00A
:1051D000202811D0282811D10FE011E00121201D35
:1051E00004F072FB05460BE0012104F1240004F0F9
:1051F00003FC054604E003E002E001E0012500BFF6
:1052000000BF55B97A482830006820F03800A16FF7
:10521000084377492831086000E02E43207800F0E9
:105220000200022828D1606F062815D2DFE800F0BE
:1052300003040A11121311E00121201D04F044FBA4
:1052400005460BE0012104F1240004F0D5FB0546DE
:1052500004E003E002E001E0012500BF00BF55B912
:1052600063482830006820F00700616F08436049F8
:105270002831086000E02E43207800F00400042864
:105280002AD1D4F89000062815D2DFE800F00304F4
:105290000A11121311E00121201D04F015FB05462F
:1052A0000BE0012104F1240004F0A6FB054604E014
:1052B00003E002E001E0012500BF00BF5DB94C48FA
:1052C0002C30006820F00700D4F8901008434849BB
:1052D0002C31086000E02E43207800F020002028C8
:1052E00036D1D4F88C00B0F1405F1DD007DC68B136
:1052F000B0F1805F0BD0B0F1005F18D10DE0B0F1DC
:10530000804F12D0B0F1A04F11D10FE011E0002179
:10531000201D04F0D9FA05460BE0022104F1240017
:1053200004F06AFB054604E003E002E001E0012529
:1053300000BF00BF5DB92E482830006820F0E04073
:10534000D4F88C1008432A492831086000E02E4325
:10535000207800F04000402836D1D4F89800B0F50D
:10536000406F1DD007DC68B1B0F5806F0BD0B0F591
:10537000006F18D10DE0B0F5805F12D0B0F5A05FDE
:1053800011D10FE011E00021201D04F09DFA054627
:105390000BE0022104F1240004F02EFB054604E09A
:1053A00003E002E001E0012500BF00BF5DB9104845
:1053B0002C30006820F4E050D4F8981008430C49D1
:1053C0002C31086000E02E43207800F08000802817
:1053D0003BD1D4F89C00B0F5C04F24D00EDCA0B176
:1053E000B0F5005F12D0B0F5804F1FD114E000007F
:1053F0002C44025800480258FFFCFF0FB0F5004F44
:1054000012D0B0F5204F11D10FE011E00021201D86
:1054100004F05AFA05460BE0022104F1240004F0DE
:10542000EBFA054604E003E002E001E0012500BFDD
:1054300000BF4DB9B248006820F46040D4F89C1019
:105440000843AF49086000E02E43207800F00800D0
:10545000082816D1D4F88000B0F5805F06D102216B
:1054600004F1240004F0C8FA06430AE0A448001F2F
:10547000006820F44050D4F880100843A049091F68
:105480000860207800F01000102814D1D4F894009F
:10549000B0F5807F06D1022104F1240004F0ACFABB
:1054A000064308E09648006820F44070D4F8941051
:1054B000084393490860206800F40020B0F5002FED
:1054C00026D1D4F8A00030B1B0F5803F09D0B0F5B6
:1054D000003F0ED10CE00021201D04F0F5F9054637
:1054E00009E0022104F1240004F086FA054602E0F6
:1054F00001E0012500BF00BF4DB98148006820F4DC
:105500004030D4F8A01008437D49086000E02E43E5
:10551000206800F48020B0F5802F2DD1D4F88400CD
:10552000B0F5801F06D0B0F5001F0CD0B0F5401FBD
:1055300011D10FE072482C38006840F400307049F7
:105540002C39086009E0012104F1240004F054FA28
:10555000054602E001E0012500BF00BF5DB96848D3
:10556000001F006820F44010D4F8841008436449F8
:10557000091F086000E02E43206800F48030B0F579
:10558000803F24D1E06C18B1B0F5803F0FD108E026
:105590005B482C38006840F4003059492C390860C9
:1055A00007E00221201D04F08FF9054601E00125E6
:1055B00000BF00BF55B952480C38006820F4803055
:1055C000E16C08434E490C39086000E02E43206826
:1055D00000F00050B0F1005F05D1022104F1240079
:1055E00004F00AFA0643206800F40030B0F5003FEA
:1055F00027D1E06FA0B1B0F5807F06D0B0F5007F75
:105600000CD0B0F5407F0CD109E03D482C38006843
:1056100040F400303A492C39086004E003E002E02D
:1056200001E0012500BF00BF55B93548001F0068E3
:1056300020F44070E16F08433149091F086000E021
:105640002E43206800F48010B0F5801F09D12C484B
:105650000838006820F00040216F084328490839C5
:105660000860206800F08050B0F1805F0AD12448C3
:105670004838006820F48040D4F8B410084320492A
:1056800048390860206800F40010B0F5001F09D107
:105690001B480838006820F08070A16E0843184944
:1056A00008390860206800F08040B0F1804F11D1C7
:1056B00000BF13484838006820F4004010494839BA
:1056C000086008460068D4F8B81008430C49483907
:1056D000086000BF206800F00040B0F1004F09D121
:1056E00007480C38006820F04050216D08430449F9
:1056F0000C39086016B90020BDE8F0810120FBE7F5
:105700005844025870B504460D4600268D4800687E
:1057100000F00700A8420ED28A48006820F0070077
:105720002843884908600846006800F00700A8423E
:1057300001D0012070BD207800F00200022807D1BE
:105740008148006820F00F00E16808437E49086046
:10575000207800F00100002851D07B48006820F438
:105760007060A1680843784908606068022807D122
:10577000754818380068C0F34040F8B90120D9E7EF
:105780006068032807D1704818380068C0F340608B
:10579000A0B90120CEE76068012807D16A4818380F
:1057A0000068C0F3002048B90120C3E766481838F4
:1057B0000068C0F3800008B90120BBE762480838E0
:1057C000006820F00700616808435F4908390860F5
:1057D000FEF72AFD06466068022811D108E0FEF7B0
:1057E00023FD801B41F28831884201D90320A1E7C3
:1057F00055480838006800F038001028EFD13AE02A
:105800006068032811D108E0FEF70EFD801B41F20D
:105810008831884201D903208CE74B48083800685A
:1058200000F038001828EFD125E06068012811D178
:1058300008E0FEF7F9FC801B41F28831884201D96B
:10584000032077E740480838006800F0380008284F
:10585000EFD110E008E0FEF7E7FC801B41F2883151
:10586000884201D9032065E737480838006800F00E
:1058700038000028EFD13348006800F00700A84244
:105880000ED93048006820F0070028432D490860F1
:105890000846006800F00700A84201D0012049E74F
:1058A000207800F00400042807D12748006820F081
:1058B00070002169084324490860207800F008003E
:1058C000082809D12048001D006820F07000616997
:1058D00008431D49091D0860207800F010001028B9
:1058E00009D11948001D006820F4E060A16908434F
:1058F0001549091D0860207800F02000202809D1F2
:1059000011480830006820F07000E16908430E4932
:105910000831086000F066F80B49096801F470610D
:105920004FF4807292FAA2F2B2FA82F2D140074AA0
:10593000515CC840064908600F20FEF795FC002026
:10594000F8E60000002000521844025842DE000829
:105950003400002410B5FEF7DBFE0949096801F0A8
:105960000F01012292FAA2F2B2FA82F2D140054A64
:10597000515CC840044908600846006810BD00003A
:105980001844025842DE00083800002410B5FFF722
:10599000E1FF0749096801F07001102292FAA2F2B2
:1059A000B2FA82F2D140034A515CC84010BD0000F7
:1059B0001C44025842DE000810B5FFF7CBFF074930
:1059C000096801F4E0614FF4807292FAA2F2B2FA2F
:1059D00082F2D140024A515CC84010BD1C440258BA
:1059E00042DE000870B5012500EE905A0022012128
:1059F00000230024DFED861AB0EE610ADFED841A81
:105A0000B0EE611A0020834D2D6805F0380535B1E0
:105A1000082D15D0102D15D0182D7CD114E07D4DFA
:105A2000103D2D68C5F3401545B17A4D103D2D68E8
:105A3000C5F3C106784D25FA06F000E07648E5E0AA
:105A40007648E3E07648E1E0724D18352D6805F0C0
:105A50000302704D18352D68C5F305116D4D1C35C9
:105A60002D6805F001036B4D24352D68C5F3CC0579
:105A700015FB03F501EE905AF8EE611AB0EE610ADB
:105A800022B1012A4FD0022A7DD16BE0614D103D39
:105A90002D68C5F340152DB35E4D103D2D68C5F33F
:105AA000C1065D4D25FA06F4B4FBF1F501EE905AFE
:105AB000B8EE612ADFED5B1AC0EE212A554D203584
:105AC0002D68C5F3080501EE905AF8EE611A72EEE2
:105AD000A11AF7EE002A71EEA21A62EE211AB0EEB8
